{
  "_format": "hh-sol-artifact-1",
  "contractName": "Voting",
  "sourceName": "contracts/Voting.sol",
  "abi": [
    {
      "inputs": [
        {
          "internalType": "string[]",
          "name": "_candidateNames",
          "type": "string[]"
        },
        {
          "internalType": "string[]",
          "name": "_candidateImages",
          "type": "string[]"
        },
        {
          "internalType": "uint256",
          "name": "_durationInMinutes",
          "type": "uint256"
        }
      ],
      "stateMutability": "nonpayable",
      "type": "constructor"
    },
    {
      "inputs": [
        {
          "internalType": "string",
          "name": "_name",
          "type": "string"
        },
        {
          "internalType": "string",
          "name": "_image",
          "type": "string"
        }
      ],
      "name": "addCandidate",
      "outputs": [],
      "stateMutability": "nonpayable",
      "type": "function"
    },
    {
      "inputs": [
        {
          "internalType": "uint256",
          "name": "",
          "type": "uint256"
        }
      ],
      "name": "candidates",
      "outputs": [
        {
          "internalType": "string",
          "name": "name",
          "type": "string"
        },
        {
          "internalType": "uint256",
          "name": "voteCount",
          "type": "uint256"
        },
        {
          "internalType": "string",
          "name": "image",
          "type": "string"
        }
      ],
      "stateMutability": "view",
      "type": "function"
    },
    {
      "inputs": [],
      "name": "getAllVotesOfCandidates",
      "outputs": [
        {
          "components": [
            {
              "internalType": "string",
              "name": "name",
              "type": "string"
            },
            {
              "internalType": "uint256",
              "name": "voteCount",
              "type": "uint256"
            },
            {
              "internalType": "string",
              "name": "image",
              "type": "string"
            }
          ],
          "internalType": "struct Voting.Candidate[]",
          "name": "",
          "type": "tuple[]"
        }
      ],
      "stateMutability": "view",
      "type": "function"
    },
    {
      "inputs": [],
      "name": "getRemainingTime",
      "outputs": [
        {
          "internalType": "uint256",
          "name": "",
          "type": "uint256"
        }
      ],
      "stateMutability": "view",
      "type": "function"
    },
    {
      "inputs": [],
      "name": "getVotingStatus",
      "outputs": [
        {
          "internalType": "bool",
          "name": "",
          "type": "bool"
        }
      ],
      "stateMutability": "view",
      "type": "function"
    },
    {
      "inputs": [
        {
          "internalType": "uint256",
          "name": "_candidateIndex",
          "type": "uint256"
        }
      ],
      "name": "vote",
      "outputs": [],
      "stateMutability": "nonpayable",
      "type": "function"
    },
    {
      "inputs": [
        {
          "internalType": "address",
          "name": "",
          "type": "address"
        }
      ],
      "name": "voters",
      "outputs": [
        {
          "internalType": "bool",
          "name": "",
          "type": "bool"
        }
      ],
      "stateMutability": "view",
      "type": "function"
    },
    {
      "inputs": [],
      "name": "votingEnd",
      "outputs": [
        {
          "internalType": "uint256",
          "name": "",
          "type": "uint256"
        }
      ],
      "stateMutability": "view",
      "type": "function"
    },
    {
      "inputs": [],
      "name": "votingStart",
      "outputs": [
        {
          "internalType": "uint256",
          "name": "",
          "type": "uint256"
        }
      ],
      "stateMutability": "view",
      "type": "function"
    }
  ],
  "bytecode": "0x60806040523480156200001157600080fd5b50604051620019cf380380620019cf833981810160405281019062000037919062000564565b81518351146200007e576040517f08c379a0000000000000000000000000000000000000000000000000000000008152600401620000759062000685565b60405180910390fd5b60005b83518110156200016c5760006040518060600160405280868481518110620000ae57620000ad620006a7565b5b6020026020010151815260200160008152602001858481518110620000d857620000d7620006a7565b5b6020026020010151815250908060018154018082558091505060019003906000526020600020906003020160009091909190915060008201518160000190805190602001906200012a929190620001e0565b5060208201518160010155604082015181600201908051906020019062000153929190620001e0565b5050508080620001639062000705565b91505062000081565b5033600160006101000a81548173ffffffffffffffffffffffffffffffffffffffff021916908373ffffffffffffffffffffffffffffffffffffffff16021790555042600381905550603c81620001c4919062000753565b42620001d19190620007b4565b60048190555050505062000876565b828054620001ee9062000840565b90600052602060002090601f0160209004810192826200021257600085556200025e565b82601f106200022d57805160ff19168380011785556200025e565b828001600101855582156200025e579182015b828111156200025d57825182559160200191906001019062000240565b5b5090506200026d919062000271565b5090565b5b808211156200028c57600081600090555060010162000272565b5090565b6000604051905090565b600080fd5b600080fd5b600080fd5b6000601f19601f8301169050919050565b7f4e487b7100000000000000000000000000000000000000000000000000000000600052604160045260246000fd5b620002f482620002a9565b810181811067ffffffffffffffff82111715620003165762000315620002ba565b5b80604052505050565b60006200032b62000290565b9050620003398282620002e9565b919050565b600067ffffffffffffffff8211156200035c576200035b620002ba565b5b602082029050602081019050919050565b600080fd5b600080fd5b600067ffffffffffffffff821115620003955762000394620002ba565b5b620003a082620002a9565b9050602081019050919050565b60005b83811015620003cd578082015181840152602081019050620003b0565b83811115620003dd576000848401525b50505050565b6000620003fa620003f48462000377565b6200031f565b90508281526020810184848401111562000419576200041862000372565b5b62000426848285620003ad565b509392505050565b600082601f830112620004465762000445620002a4565b5b815162000458848260208601620003e3565b91505092915050565b60006200047862000472846200033e565b6200031f565b905080838252602082019050602084028301858111156200049e576200049d6200036d565b5b835b81811015620004ec57805167ffffffffffffffff811115620004c757620004c6620002a4565b5b808601620004d689826200042e565b85526020850194505050602081019050620004a0565b5050509392505050565b600082601f8301126200050e576200050d620002a4565b5b81516200052084826020860162000461565b91505092915050565b6000819050919050565b6200053e8162000529565b81146200054a57600080fd5b50565b6000815190506200055e8162000533565b92915050565b60008060006060848603121562000580576200057f6200029a565b5b600084015167ffffffffffffffff811115620005a157620005a06200029f565b5b620005af86828701620004f6565b935050602084015167ffffffffffffffff811115620005d357620005d26200029f565b5b620005e186828701620004f6565b9250506040620005f4868287016200054d565b9150509250925092565b600082825260208201905092915050565b7f4e616d657320616e6420696d6167657320617272617973206d7573742068617660008201527f65207468652073616d65206c656e677468000000000000000000000000000000602082015250565b60006200066d603183620005fe565b91506200067a826200060f565b604082019050919050565b60006020820190508181036000830152620006a0816200065e565b9050919050565b7f4e487b7100000000000000000000000000000000000000000000000000000000600052603260045260246000fd5b7f4e487b7100000000000000000000000000000000000000000000000000000000600052601160045260246000fd5b6000620007128262000529565b91507fffffffffffffffffffffffffffffffffffffffffffffffffffffffffffffffff821415620007485762000747620006d6565b5b600182019050919050565b6000620007608262000529565b91506200076d8362000529565b9250817fffffffffffffffffffffffffffffffffffffffffffffffffffffffffffffffff0483118215151615620007a957620007a8620006d6565b5b828202905092915050565b6000620007c18262000529565b9150620007ce8362000529565b9250827fffffffffffffffffffffffffffffffffffffffffffffffffffffffffffffffff03821115620008065762000805620006d6565b5b828201905092915050565b7f4e487b7100000000000000000000000000000000000000000000000000000000600052602260045260246000fd5b600060028204905060018216806200085957607f821691505b6020821081141562000870576200086f62000811565b5b50919050565b61114980620008866000396000f3fe608060405234801561001057600080fd5b50600436106100935760003560e01c8063581c281c11610066578063581c281c1461012057806385a386351461013e57806390a9ab901461015c578063a3ec138d1461017a578063efb98bcf146101aa57610093565b80630121b93f14610098578063101158af146100b457806326541b56146100d25780633477ee2e146100ee575b600080fd5b6100b260048036038101906100ad91906108ca565b6101c8565b005b6100bc610332565b6040516100c99190610906565b60405180910390f35b6100ec60048036038101906100e79190610a67565b610338565b005b610108600480360381019061010391906108ca565b610459565b60405161011793929190610b67565b60405180910390f35b6101286105a3565b6040516101359190610bc7565b60405180910390f35b6101466105bd565b6040516101539190610906565b60405180910390f35b6101646105c3565b6040516101719190610d54565b60405180910390f35b610194600480360381019061018f9190610dd4565b610750565b6040516101a19190610bc7565b60405180910390f35b6101b2610770565b6040516101bf9190610906565b60405180910390f35b600260003373ffffffffffffffffffffffffffffffffffffffff1673ffffffffffffffffffffffffffffffffffffffff16815260200190815260200160002060009054906101000a900460ff1615610255576040517f08c379a000000000000000000000000000000000000000000000000000000000815260040161024c90610e4d565b60405180910390fd5b600080549050811061029c576040517f08c379a000000000000000000000000000000000000000000000000000000000815260040161029390610eb9565b60405180910390fd5b600081815481106102b0576102af610ed9565b5b906000526020600020906003020160010160008154809291906102d290610f37565b91905055506001600260003373ffffffffffffffffffffffffffffffffffffffff1673ffffffffffffffffffffffffffffffffffffffff16815260200190815260200160002060006101000a81548160ff02191690831515021790555050565b60035481565b600160009054906101000a900473ffffffffffffffffffffffffffffffffffffffff1673ffffffffffffffffffffffffffffffffffffffff163373ffffffffffffffffffffffffffffffffffffffff16146103c8576040517f08c379a00000000000000000000000000000000000000000000000000000000081526004016103bf90610ff2565b60405180910390fd5b6000604051806060016040528084815260200160008152602001838152509080600181540180825580915050600190039060005260206000209060030201600090919091909150600082015181600001908051906020019061042b9291906107dd565b506020820151816001015560408201518160020190805190602001906104529291906107dd565b5050505050565b6000818154811061046957600080fd5b906000526020600020906003020160009150905080600001805461048c90611041565b80601f01602080910402602001604051908101604052809291908181526020018280546104b890611041565b80156105055780601f106104da57610100808354040283529160200191610505565b820191906000526020600020905b8154815290600101906020018083116104e857829003601f168201915b50505050509080600101549080600201805461052090611041565b80601f016020809104026020016040519081016040528092919081815260200182805461054c90611041565b80156105995780601f1061056e57610100808354040283529160200191610599565b820191906000526020600020905b81548152906001019060200180831161057c57829003601f168201915b5050505050905083565b600060035442101580156105b8575060045442105b905090565b60045481565b60606000805480602002602001604051908101604052809291908181526020016000905b82821015610747578382906000526020600020906003020160405180606001604052908160008201805461061a90611041565b80601f016020809104026020016040519081016040528092919081815260200182805461064690611041565b80156106935780601f1061066857610100808354040283529160200191610693565b820191906000526020600020905b81548152906001019060200180831161067657829003601f168201915b50505050508152602001600182015481526020016002820180546106b690611041565b80601f01602080910402602001604051908101604052809291908181526020018280546106e290611041565b801561072f5780601f106107045761010080835404028352916020019161072f565b820191906000526020600020905b81548152906001019060200180831161071257829003601f168201915b505050505081525050815260200190600101906105e7565b50505050905090565b60026020528060005260406000206000915054906101000a900460ff1681565b60006003544210156107b7576040517f08c379a00000000000000000000000000000000000000000000000000000000081526004016107ae906110bf565b60405180910390fd5b60045442106107c957600090506107da565b426004546107d791906110df565b90505b90565b8280546107e990611041565b90600052602060002090601f01602090048101928261080b5760008555610852565b82601f1061082457805160ff1916838001178555610852565b82800160010185558215610852579182015b82811115610851578251825591602001919060010190610836565b5b50905061085f9190610863565b5090565b5b8082111561087c576000816000905550600101610864565b5090565b6000604051905090565b600080fd5b600080fd5b6000819050919050565b6108a781610894565b81146108b257600080fd5b50565b6000813590506108c48161089e565b92915050565b6000602082840312156108e0576108df61088a565b5b60006108ee848285016108b5565b91505092915050565b61090081610894565b82525050565b600060208201905061091b60008301846108f7565b92915050565b600080fd5b600080fd5b6000601f19601f8301169050919050565b7f4e487b7100000000000000000000000000000000000000000000000000000000600052604160045260246000fd5b6109748261092b565b810181811067ffffffffffffffff821117156109935761099261093c565b5b80604052505050565b60006109a6610880565b90506109b2828261096b565b919050565b600067ffffffffffffffff8211156109d2576109d161093c565b5b6109db8261092b565b9050602081019050919050565b82818337600083830152505050565b6000610a0a610a05846109b7565b61099c565b905082815260208101848484011115610a2657610a25610926565b5b610a318482856109e8565b509392505050565b600082601f830112610a4e57610a4d610921565b5b8135610a5e8482602086016109f7565b91505092915050565b60008060408385031215610a7e57610a7d61088a565b5b600083013567ffffffffffffffff811115610a9c57610a9b61088f565b5b610aa885828601610a39565b925050602083013567ffffffffffffffff811115610ac957610ac861088f565b5b610ad585828601610a39565b9150509250929050565b600081519050919050565b600082825260208201905092915050565b60005b83811015610b19578082015181840152602081019050610afe565b83811115610b28576000848401525b50505050565b6000610b3982610adf565b610b438185610aea565b9350610b53818560208601610afb565b610b5c8161092b565b840191505092915050565b60006060820190508181036000830152610b818186610b2e565b9050610b9060208301856108f7565b8181036040830152610ba28184610b2e565b9050949350505050565b60008115159050919050565b610bc181610bac565b82525050565b6000602082019050610bdc6000830184610bb8565b92915050565b600081519050919050565b600082825260208201905092915050565b6000819050602082019050919050565b600082825260208201905092915050565b6000610c2a82610adf565b610c348185610c0e565b9350610c44818560208601610afb565b610c4d8161092b565b840191505092915050565b610c6181610894565b82525050565b60006060830160008301518482036000860152610c848282610c1f565b9150506020830151610c996020860182610c58565b5060408301518482036040860152610cb18282610c1f565b9150508091505092915050565b6000610cca8383610c67565b905092915050565b6000602082019050919050565b6000610cea82610be2565b610cf48185610bed565b935083602082028501610d0685610bfe565b8060005b85811015610d425784840389528151610d238582610cbe565b9450610d2e83610cd2565b925060208a01995050600181019050610d0a565b50829750879550505050505092915050565b60006020820190508181036000830152610d6e8184610cdf565b905092915050565b600073ffffffffffffffffffffffffffffffffffffffff82169050919050565b6000610da182610d76565b9050919050565b610db181610d96565b8114610dbc57600080fd5b50565b600081359050610dce81610da8565b92915050565b600060208284031215610dea57610de961088a565b5b6000610df884828501610dbf565b91505092915050565b7f596f75206861766520616c726561647920766f7465642e000000000000000000600082015250565b6000610e37601783610aea565b9150610e4282610e01565b602082019050919050565b60006020820190508181036000830152610e6681610e2a565b9050919050565b7f496e76616c69642063616e64696461746520696e6465782e0000000000000000600082015250565b6000610ea3601883610aea565b9150610eae82610e6d565b602082019050919050565b60006020820190508181036000830152610ed281610e96565b9050919050565b7f4e487b7100000000000000000000000000000000000000000000000000000000600052603260045260246000fd5b7f4e487b7100000000000000000000000000000000000000000000000000000000600052601160045260246000fd5b6000610f4282610894565b91507fffffffffffffffffffffffffffffffffffffffffffffffffffffffffffffffff821415610f7557610f74610f08565b5b600182019050919050565b7f4f6e6c7920746865206f776e65722063616e2063616c6c20746869732066756e60008201527f6374696f6e000000000000000000000000000000000000000000000000000000602082015250565b6000610fdc602583610aea565b9150610fe782610f80565b604082019050919050565b6000602082019050818103600083015261100b81610fcf565b9050919050565b7f4e487b7100000000000000000000000000000000000000000000000000000000600052602260045260246000fd5b6000600282049050600182168061105957607f821691505b6020821081141561106d5761106c611012565b5b50919050565b7f566f74696e6720686173206e6f742073746172746564207965742e0000000000600082015250565b60006110a9601b83610aea565b91506110b482611073565b602082019050919050565b600060208201905081810360008301526110d88161109c565b9050919050565b60006110ea82610894565b91506110f583610894565b92508282101561110857611107610f08565b5b82820390509291505056fea2646970667358221220a7420e406309dae01f95fe9b234fb4c981d87af10f2183c974e0bc8388e6009464736f6c634300080b0033",
  "linkReferences": {},
  "deployedLinkReferences": {}
}